:100000000C94E0000C9408010C9408010C944B052E
:100010000C944B050C944B050C9408010C940801AE
:100020000C9408010C9408010C9408010C9408012C
:100030000C9408010C9408010C9408010C9408011C
:100040000C94A9040C9408010C9419050C94F30465
:100050000C9408010C9408010C9408010C940801FC
:100060000C9408010C94080100407A10F35A00A087
:10007000724E18090010A5D4E80000E87648170071
:1000800000E40B54020000CA9A3B000000E1F505B1
:10009000000080969800000040420F000000A086FB
:1000A00001000000102700000000E803000000002D
:1000B0006400000000000A000000000001000000D1
:1000C00000002C76D888DC674F0823DFC1DFAE59EB
:1000D000E1B1B796E5E3E453C63AE651997696E87E
:1000E000E6C28426EB898C9B62ED407C6FFCEFBC02
:1000F0009C9F40F2BAA56FA5F490055A2AF75C932D
:100100006B6CF9676DC11BFCE0E40D47FEF520E662
:10011000B500D0ED902E0300943577050080841E45
:10012000080000204E0A000000C80C333333330FA0
:10013000986E12831141EF8D2114893BE65516CF3D
:10014000FEE6DB18D1844B381BF77C1D901DA4BB49
:10015000E424203284725E228100C9F124ECA1E5FE
:100160003D2700000000240027002A0000000008AE
:10017000000201000003040700000000000000006E
:1001800000000000230026002900000000002500D8
:1001900028002B00040404040404040402020202E4
:1001A000020203030303030301020408102040803A
:1001B000010204081020010204081020C505E4090A
:1001C00011241FBECFEFD8E0DEBFCDBF11E0A0E00D
:1001D000B1E0ECE4FFE102C005900D92AE36B1074C
:1001E000D9F722E0AEE6B1E001C01D92A33CB20710
:1001F000E1F710E0CFEDD0E004C02197FE010E94AE
:10020000830FCE3DD107C9F70E9485060C94990F44
:100210000C94000090E0FC01E459FE4F2491FC0195
:10022000E855FE4F3491FC01EC56FE4FE491EE236D
:1002300009F43CC0222339F1233091F038F4213005
:10024000A9F0223001F584B58F7D12C0273091F0DE
:100250002830A1F02430B9F4809180008F7D03C054
:10026000809180008F77809380000DC084B58F7758
:1002700084BD09C08091B0008F7703C08091B00029
:100280008F7D8093B000F0E0EE0FFF1FE657FE4F2A
:10029000A591B4919FB7F894611104C08C913095E9
:1002A000382302C0EC913E2B3C939FBF0895CF931F
:1002B000DF9390E0FC01E855FE4F2491FC01EC56E1
:1002C000FE4F8491882361F190E0880F991FFC0113
:1002D000EE59FE4FC591D491FC01E657FE4FA59112
:1002E000B491611109C09FB7F89488812095822349
:1002F0008883EC912E230BC0623061F49FB7F89491
:100300008881322F309583238883EC912E2B2C9378
:100310009FBF06C08FB7F894E8812E2B28838FBF2C
:10032000DF91CF9108958E3008F08E5087708064F1
:1003300080937C0080917A00806480937A00809121
:100340007A0086FDFCCF809178002091790090E0C2
:10035000922B08953FB7F8948091FB019091FC0196
:10036000A091FD01B091FE0126B5A89B05C02F3FCD
:1003700019F00196A11DB11D3FBFBA2FA92F982FCB
:100380008827820F911DA11DB11DBC01CD0142E046
:10039000660F771F881F991F4A95D1F708958F928E
:1003A0009F92AF92BF92CF92DF92EF92FF926B013A
:1003B0007C010E94AA014B015C01C114D104E1043B
:1003C000F104F1F00E94AA01DC01CB01881999091E
:1003D000AA09BB09883E9340A105B10570F321E04D
:1003E000C21AD108E108F10888EE880E83E0981E51
:1003F000A11CB11CC114D104E104F10419F7DDCF33
:10040000FF90EF90DF90CF90BF90AF909F908F9034
:100410000895CF92DF92EF92FF920F931F93CF93A5
:10042000DF936C017A018B01C0E0D0E0CE15DF05CF
:1004300081F0D8016D918D01D601ED91FC91019073
:10044000F081E02DC6010995892B11F02196EECFA0
:100450007E01C701DF91CF911F910F91FF90EF9027
:10046000DF90CF900895FC01538D448D252F30E00F
:10047000842F90E0821B930B541710F0CF960895B1
:1004800001970895FC01918D828D981761F0828DFE
:10049000DF01A80FB11D5D968C91928D9F5F9F73B8
:1004A000928F90E008958FEF9FEF0895FC01918D5A
:1004B000828D981731F0828DE80FF11D858D90E0C7
:1004C00008958FEF9FEF0895FC01918D228D892F64
:1004D00090E0805C9F4F821B91098F73992708954C
:1004E00087E092E00E94640221E0892B09F420E079
:1004F000822F0895FC01848DDF01A80FB11DA35A3E
:10050000BF4F2C91848D90E001968F739927848F33
:10051000A689B7892C93A089B1898C918370806456
:100520008C93938D848D981306C00288F389E02DF7
:1005300080818F7D80830895EF92FF920F931F93A8
:10054000CF93DF93EC0181E0888F9B8D8C8D981386
:1005500005C0E889F989808185FD26C0F62E0B8DBE
:1005600010E00F5F1F4F0F731127E02E8C8DE812E4
:100570000CC00FB607FCFACFE889F989808185FFA6
:10058000F5CFCE010E947A02F1CF8B8DFE01E80FEC
:10059000F11DE35AFF4FF0829FB7F8940B8FEA8961
:1005A000FB89808180620AC09FB7F894EE89FF8939
:1005B0006083E889F98980818370806480839FBF2C
:1005C00081E090E0DF91CF911F910F91FF90EF902C
:1005D0000895CF93DF93EC01888D8823C9F0EA89D1
:1005E000FB89808185FD05C0A889B9898C9186FD2C
:1005F0000FC00FB607FCF5CF808185FFF2CFA88929
:10060000B9898C9185FFEDCFCE010E947A02E7CFA8
:10061000DF91CF91089580E090E0892B29F00E942E
:10062000700281110C94000008952091B001309166
:10063000B1012817390771F49091AE018091AF0193
:10064000981741F0E091AE01F0E0E259FE4F808151
:1006500090E008958FEF9FEF089508951F93CF9333
:10066000DF93DC015C968D919C915D97009739F446
:1006700021E030E013963C932E9312973BC05196A5
:10068000ED91FC91529750962C915097322F3095C6
:100690001FB75E964C915E97742F727041FD609506
:1006A000F8944081772311F0422B01C0432340830B
:1006B000EC012197F1F748E0508160FF02C0522B16
:1006C00001C053235083EC012197F1F76695415007
:1006D00099F78081772319F08323808302C0282B28
:1006E00020831FBF5C968D919C915D970197F1F7D8
:1006F00081E090E0DF91CF911F9108952091B001AA
:100700003091B1012817390771F48091AF01209120
:10071000AE0190E0805C9F4F821B910960E470E025
:100720000E94540F089580E090E008952091B00158
:100730003091B10128173907B9F49091AE01809139
:10074000AF01981789F0E091AE01F0E0E259FE4F59
:1007500080812091AE0130E02F5F3F4F2F73332710
:100760002093AE0190E008958FEF9FEF08950895D4
:1007700080E090E00895FC0190810180F281E02DFD
:10078000F8948181892B81832281892F8095282368
:100790002283A7E0B0E01197F1F7218182238183C2
:1007A000A3E2B0E01197F1F780817894EFECF0E0EC
:1007B0003197F1F7982381E009F480E00895FC0176
:1007C00090810180F281E02D892F809560FF12C019
:1007D000F8942281822382838181892B8183A3E201
:1007E000B0E01197F1F78281982B9283789487ED8E
:1007F00090E011C0F8942281822382838181892B29
:100800008183AFEFB0E01197F1F78281982B92834B
:1008100078948FE090E00197F1F70895DF92EF92DE
:10082000FF920F931F93CF93DF93EC01D62EE42E0C
:1008300008E010E0FF24F39461E08D2D8F2109F48E
:1008400060E0CE010E94DF03FF0C01501109A1F707
:10085000E11010C0F894E981FA8191818881809536
:1008600089238183E981FA81928188818095892316
:1008700082837894DF91CF911F910F91FF90EF9039
:10088000DF9008950F931F93CF93DF938C0140E087
:1008900065E50E940E04CFEFD1E0699140E0C80108
:1008A0000E940E0482E0C730D807B9F7DF91CF91DC
:1008B0001F910F910895DC012C911196ED91FC91FF
:1008C0001297F8948181922F90958923818378944F
:1008D0008DE743E050E0815021F1DA011197F1F703
:1008E00030813223C1F3F89482818923828381810C
:1008F000822B81837894ABE7B7E01197F1F7F894F6
:1009000081819823918383E191E00197F1F78081C0
:10091000282381E009F080E07894E3E6F6E031975F
:10092000F1F708950E94890F6115710579F0FB01B7
:1009300001900020E9F73197AF01461B570BDC010E
:10094000ED91FC910280F381E02D099480E090E02C
:1009500008951F920F920FB60F9211242F933F9379
:100960008F939F93AF93BF938091F7019091F8017C
:10097000A091F901B091FA013091F60123E0230F23
:100980002D3720F40196A11DB11D05C026E8230FC7
:100990000296A11DB11D2093F6018093F70190935B
:1009A000F801A093F901B093FA018091FB019091B5
:1009B000FC01A091FD01B091FE010196A11DB11DA8
:1009C0008093FB019093FC01A093FD01B093FE0185
:1009D000BF91AF919F918F913F912F910F900FBE3B
:1009E0000F901F9018951F920F920FB60F9211241F
:1009F0002F933F934F935F936F937F938F939F9327
:100A0000AF93BF93EF93FF9387E092E00E947A0247
:100A1000FF91EF91BF91AF919F918F917F916F91D6
:100A20005F914F913F912F910F900FBE0F901F90AC
:100A300018951F920F920FB60F9211242F938F9338
:100A40009F93EF93FF93E0911702F091180280813A
:100A5000E0911D02F0911E0282FD12C090818091F2
:100A600020028F5F8F7320912102821751F0E09155
:100A70002002F0E0E95FFD4F958F8093200201C0D6
:100A80008081FF91EF919F918F912F910F900FBED9
:100A90000F901F9018951F920F920FB60F9211246E
:100AA0002F933F934F935F936F937F938F939F9376
:100AB000AF93BF93EF93FF93E091B001F091B10139
:100AC000309709F451C0968DA685B785858591FF2D
:100AD00004C09C91892329F447C09C91892309F083
:100AE00043C0A389B4899C918589809589238C937F
:100AF000868997890197F1F7608D718DA685B785F5
:100B0000558538E020E0CB010197F1F7822F90E086
:100B100095958795282F4C91452309F020683150F1
:100B200091F7868D81FD20958091AF0190E001962F
:100B30008F7399273091AE01381749F0A091AF011A
:100B4000B0E0A259BE4F2C938093AF0103C0868DB5
:100B50008160868F828D938D0197F1F7A389B48987
:100B60009C918589892B8C93FF91EF91BF91AF91D7
:100B70009F918F917F916F915F914F913F912F91B5
:100B80000F900FBE0F901F90189510920A021092AE
:100B9000090288EE93E0A0E0B0E080930B0290930E
:100BA0000C02A0930D02B0930E022EE031E03093C0
:100BB00008022093070225EC30E0309314022093C2
:100BC000130224EC30E0309316022093150220EC3F
:100BD00030E0309318022093170221EC30E030937C
:100BE0001A022093190222EC30E030931C02209369
:100BF0001B0226EC30E030931E0220931D0210925F
:100C000020021092210210922202109223021092CE
:100C1000A7021092A6028093A8029093A902A09323
:100C2000AA02B093AB0280E291E09093A502809378
:100C3000A4021092BB021092BA021092BD0210924E
:100C4000BC021092BF021092BE021092C10210921A
:100C5000C0026091C2026E7F6D7F6093C202669592
:100C6000617081E068278BE00E940A0161E08BE0FF
:100C70000E945701E3EBF1E0E491E093B402EFE965
:100C8000F1E0E491F0E0EE0FFF1FE657FE4F859193
:100C900094919093B6028093B50260E08AE00E943E
:100CA00057018091C20281FD04C061E08AE00E9488
:100CB0000A018AE08093B002E2EBF1E0E491E09374
:100CC000B102EEE9F1E0E491F0E0EE0FFF1FE05831
:100CD000FE4F859194919093B3028093B2028EE07F
:100CE00090E0909305018093040187E090E0909359
:100CF00003018093020161E00E94570186E090E0C9
:100D000090930101809300010895CF93DF93CDB7B5
:100D1000DEB7A5970FB6F894DEBF0FBECDBF7894AF
:100D200084B5826084BD84B5816084BD85B58260F0
:100D300085BD85B5816085BD80916E0081608093A1
:100D40006E0010928100809181008260809381000A
:100D5000809181008160809381008091800081601A
:100D6000809380008091B10084608093B100809175
:100D7000B00081608093B00080917A00846080939D
:100D80007A0080917A00826080937A0080917A0064
:100D9000816080937A0080917A00806880937A00E5
:100DA0001092C1001092BF021092BE021092BD02BA
:100DB0001092BC021092BB021092BA028DE991E02F
:100DC0009093C1028093C0029091B002963108F0D6
:100DD00058C02DEB30E03093BB022093BA022BE9D0
:100DE00031E03093BD022093BC022CE231E030931D
:100DF000BF022093BE0240916800983058F031E065
:100E00009E3008F430E021E0822F01C0880F3A952F
:100E1000EAF701C084E0842B80936800983038F0B2
:100E20009E3040F0963148F42CE630E008C02DE6C4
:100E300030E005C02BE630E002C020E030E0309327
:100E4000B8022093B702983030F481E001C0880FD7
:100E50009A95EAF70EC0292F30E09E3018F42850FA
:100E6000310902C02E50310981E001C0880F2A9556
:100E7000EAF78093B9028091C0029091C102019774
:100E8000F1F78091BE029091BF02892B49F1E09168
:100E9000B001F091B10182E0E43AF80709F130972E
:100EA00039F0A389B4899C918589809589238C9395
:100EB0008091C2028E7F8093C2021092AF01109285
:100EC000AE0184EA92E09093B1018093B001E09189
:100ED000B702F091B80290818091B902892B80838A
:100EE000E0911702F091180282E08083E0911302F2
:100EF000F09114021082E0911502F09116028FEC2D
:100F0000808310921F02E0911B02F0911C0286E088
:100F10008083E0911902F0911A02808180618083C0
:100F2000E0911902F0911A02808188608083E0913B
:100F30001902F0911A02808180688083E091190281
:100F4000F0911A0280818F7D808364E670E080E0FA
:100F500090E00E94CF0161E088E00E94570161E0CB
:100F600088E00E940A0182E3EAEBF1E0DF011D92D2
:100F70008A95E9F78AE0ECEEF1E0DF011D928A95AF
:100F8000E9F77E01B4E0EB0EF11C1E01E8E12E0E44
:100F9000311C44244A9433E0532E612C712C0E945E
:100FA0006B0A24E130E040E050E00E94290DDC01B2
:100FB000CB01865A9F4FAF4FBF4F4AE0BE016D5DD8
:100FC0007F4F0E94C20A009100011091010160E070
:100FD000802F0E9457011127F801E855FE4FE49138
:100FE000E983F801EC56FE4FE491F0E0EE0FFF1FAD
:100FF000E058FE4F859194919B838A831C861E86C0
:101000001D865E01FCE0AF0EB11CF5011292EE15DB
:10101000FF05E1F7CE0101960E945B04811104C037
:101020001C861E861D8663C040E060EFCE010196DF
:101030000E940E0401E0C12C912C11E0CE0101961A
:101040000E94BB03D82ECE0101960E94BB0391E003
:10105000D91203C08130B1F435C02C2D30E0D81244
:101060001BC08C85181738F4F701E20FF31F80813D
:10107000802341F402C0811729F0D12C193058F493
:101080001D8709C0F701EC0DF11D8081802B808345
:10109000DD24D39409C0912EF701E20FF31F908154
:1010A000802F8095892380836D2DCE0101960E942B
:1010B000DF031F5F000F11F4C39401E0A7E0AC153C
:1010C00008F0BCCF113440F09C86911002C0B1E012
:1010D000BE878C81811103C01C861E861D86AFEFE2
:1010E000B1E0F70181918D93AE16BF06D9F7CE011D
:1010F00001960E945B04CE0101960E94420441E0E9
:1011000064E4CE0101960E940E041C861E861D8694
:10111000F50112925F01EE15FF05D1F78091FF01F5
:10112000882309F44BC0CE0101960E945B04CE01D6
:1011300001960E94420440E06EEBCE0101960E94AF
:101140000E048E01015F1F4F98E0C92ED12CB12CE7
:10115000AA24A394CE0101960E94BB038111BA2850
:10116000AA0CF1E0CF1AD108A9F7D801BD928D01E0
:101170002A163B0649F76F8578898B89807611F4AA
:10118000687F07C0803211F46C7F03C0803409F49B
:101190006E7F072E000C880B990B0E94370E20E003
:1011A00030E040E85DE30E94E70E6093B201709387
:1011B000B3018093B4019093B5010CC06EE271E06D
:1011C00087E092E00E94940467E471E087E092E097
:1011D0000E9494046091B2017091B3018091B401B6
:1011E0009091B5010CEE11E022E043E00E94000A6C
:1011F0008DE0ECE4F1E0DE011F9601900D928A95FE
:10120000E1F7BE01615F7F4F8AEB91E00E948E0F94
:10121000B8018AEB91E00E948E0F8AE0D82EF80187
:101220008D2D11928A95E9F760E088E00E940A010D
:1012300068EE73E080E090E00E94CF018FE00E94B2
:1012400093012FEF30E0DC010E94680FA3019201AF
:101250000E94290DDA01C9014AE0B8010E94C20AC0
:101260008DE0E9E5F1E0DE01119601900D928A959D
:10127000E1F7BE016F5F7F4F8AEB91E00E948E0F16
:10128000B8018AEB91E00E948E0FD8011D92DA948A
:10129000E9F7D090020160E08D2D0E940A018BE5F4
:1012A00094E00197F1F7809104010E9493018C0171
:1012B00061E08D2D0E940A018BE496E90197F1F718
:1012C000B801110F880B990B0E94370E20E030E017
:1012D00040E85AE30E94E70E20E030E040EA50E4A4
:1012E0000E94E70E2AE037ED43EA5CE30E94C30D5B
:1012F0004B015C0120E030E0A9010E94300E87FF25
:1013000003C0812C912C5401A5019401C501B401A5
:101310000E94C40D20E030E048EC52E40E94E70E49
:101320006093B6017093B7018093B8019093B901AF
:101330000CEE11E022E043E00E94000A87E0E6E6BE
:10134000F1E0DE015C9601900D928A95E1F7BE0115
:10135000645E7F4F8AEB91E00E948E0FB8018AEBAA
:1013600091E00E948E0F8AE0D8011D928A95E9F7DC
:1013700061E088E00E940A016AE471E08AEB91E092
:101380000E948E0F6AEB71E084EA92E00E9494045E
:101390006AEB71E087E092E00E94940467E471E0F8
:1013A00087E092E00E94940482E3EAEBF1E0DF013F
:1013B0001D928A95E9F760ED77E080E090E00E9469
:1013C000CF010E940B03EBCD80E291E09093A50248
:1013D0008093A4028091B0019091B101845A92400F
:1013E00071F4E091B702F091B80290818091B90256
:1013F0008095892380831092B1011092B0010895E5
:10140000EF920F931F93CF93DF93E80147FD02C044
:1014100034E001C034E1042E000C550B57FF03C02B
:10142000519541955109E32E022F242FAE010E94C0
:10143000E70ACE01DF91CF911F910F91EF900895B0
:101440008F929F92AF92BF92CF92DF92EF92FF92D4
:10145000CF93DF93EC01688179818A819B8161154B
:1014600071058105910521F464E279ED8BE597E042
:101470002DE133EF41E050E00E94290D49015A016E
:101480009B01AC01A7EAB1E40E94480D6B017C010D
:10149000ACEEB4EFA50194010E94560DDC01CB0126
:1014A0008C0D9D1DAE1DBF1DB7FF03C00197A10987
:1014B000B04888839983AA83BB83BC01CD019F7701
:1014C000DF91CF91FF90EF90DF90CF90BF90AF90E2
:1014D0009F908F9008958F929F92AF92BF92CF92DC
:1014E000DF92EF92FF926091060170910701809167
:1014F000080190910901611571058105910521F49B
:1015000064E279ED8BE597E02DE133EF41E050E0C7
:101510000E94290D49015A019B01AC01A7EAB1E4DF
:101520000E94480D6B017C01ACEEB4EFA501940163
:101530000E94560DDC01CB018C0D9D1DAE1DBF1D03
:10154000B7FF03C00197A109B048809306019093AB
:101550000701A0930801B0930901BC01CD019F7759
:10156000FF90EF90DF90CF90BF90AF909F908F90C3
:10157000089560930601709307018093080190938A
:1015800009010895BB274A3031F4992322F4BDE2C2
:10159000909581959F4F0C94CE0ABB27FB01552750
:1015A000AA27880F991FAA1FA41710F0A41B8395C0
:1015B0005051B9F7A05DAA3308F0A95DA193009737
:1015C00079F7B111B1931192CB010C94190DA9E0E7
:1015D000B0E0EDEEFAE00C94610D6A01122FB02E2E
:1015E0002BE3201720F0FF24F394F00E02C02CE32D
:1015F000F22E0F2D27E0AE014F5F5F4F0E94410C8E
:10160000BC014981842F8970813031F0E1FC06C032
:10161000E0FE06C090E205C09DE203C09BE201C06F
:1016200090E05E2D507143FF3CC0911102C083E0F9
:1016300001C084E0811718F4212F281B01C020E08D
:1016400051110BC0F601822F30E2882319F031933B
:101650008150FBCFC20ED11C20E0992329F0D60186
:101660009C93F60131966F01C6010396E2FE0AC013
:101670003EE4D6013C9341E411964C9311971296A7
:101680003C9306C03EE6F601308341E64183328357
:10169000FC01322F40E2332309F442C04193315020
:1016A000FACF42FF44C0911102C083E001C084E040
:1016B000811718F4212F281B01C020E051110BC005
:1016C000F601822F30E2882319F031938150FBCF4D
:1016D000C20ED11C20E0992329F0D6019C93F6017B
:1016E00031966F01C6010396E2FE0BC039E4D601C4
:1016F0003C933EE411963C93119736E412963C934A
:1017000007C039E6F60130833EE6318336E63283A0
:10171000FC01322F40E2332319F041933150FBCFCB
:10172000FC01E20FF11D10828EEF9FEFA6C021E0B9
:1017300030E0911102C020E030E0161617061CF4CC
:10174000FB01319602C0E1E0F0E02E0F3F1FBB200D
:1017500021F0EB2DF0E0319602C0E0E0F0E02E0F3A
:101760003F1FE12FF0E02E173F071CF4121B212F23
:1017700001C020E08E2D887159F4F601822F30E2ED
:10178000882319F031938150FBCFC20ED11C20E089
:10179000992329F0D6019C93F60131966F015111DE
:1017A0000BC0F601822F90E3882319F091938150AA
:1017B000FBCFC20ED11C20E00F2D060F9A81342FD3
:1017C000307144FF03C0913309F40150101624F422
:1017D000093018F008E001C001E0AB0177FF02C05A
:1017E00040E050E0FB01E41BF50BA1E0B0E0AC0FE2
:1017F000BD1FEA0FFB1F8EE2A82E4B01801A910835
:101800000B2D10E01195019511094F3FBFEF5B07BC
:1018100021F4D601AC9211966D01641775072CF076
:101820008416950614F4818101C080E3415051096A
:101830003196D60111967D014017510724F0D6014B
:101840008C936701E2CF6417750739F4963320F45F
:10185000953319F4311101C081E3F6018083F7015A
:10186000822F90E2882319F091938150FBCFF701EA
:10187000E20FF11D108280E090E02996ECE00C94DC
:101880007D0D283008F027E03327DA01990F311D4C
:1018900087FD916000966105710539F432602E5F15
:1018A0003D9330E32A95E1F708959F3F30F080386B
:1018B0007105610509F03C5F3C5F3D93913008F094
:1018C0008068911DDF93CF931F930F93FF92EF9248
:1018D000192F987F9695E92F96959695E90FFF27F2
:1018E000EE53FF4F99273327EE24FF24A701E7018A
:1018F00005900894079428F4360FE71EF81E491F38
:10190000511D660F771F881F991F0694A1F7059038
:10191000079428F4E70EF81E491F561FC11D770FC4
:10192000881F991F661F0694A1F70590079428F455
:10193000F80E491F561FC71FD11D880F991F661F1C
:10194000771F0694A1F70590079420F4490F561FBE
:10195000C71FD81F990F661F771F881F0694A9F706
:1019600084911095177041F0D695C7955795479576
:10197000F794E7941A95C1F7E8E6F0E068941590BB
:10198000159135916591959105907FE27395E118D8
:10199000F10A430B560BC90BD009C0F7E10CF11E3D
:1019A000431F561FC91FD01D7EF4703311F48A9552
:1019B000E6CFE894015030F0080F0AF40027021730
:1019C00008F4202F2395022F7A3328F079E37D93B2
:1019D0002A95E9F710C07D932A9589F60694979584
:1019E0006795379517951794E118F10A430B560B35
:1019F000C90BD00998F023957E9173957A3308F03E
:101A000070E37C932013B8F77E9170617D9330F082
:101A1000839571E37D9370E32A95E1F71124EF90AC
:101A2000FF900F911F91CF91DF91992787FD90959E
:101A30000895DC01FC01672F71917723E1F732975C
:101A400004C07C916D9370836291AE17BF07C8F399
:101A50000895052E97FB1EF400940E94400D57FD3B
:101A600007D00E94920D07FC03D04EF40C94400D59
:101A700050954095309521953F4F4F4F5F4F0895BA
:101A800090958095709561957F4F8F4F9F4F0895EA
:101A90000E94B40DA59F900DB49F900DA49F800D42
:101AA000911D11240895B7FF0C94480D0E94480D14
:101AB000821B930B08952F923F924F925F926F92E9
:101AC0007F928F929F92AF92BF92CF92DF92EF92CE
:101AD000FF920F931F93CF93DF93CDB7DEB7CA1B4F
:101AE000DB0B0FB6F894DEBF0FBECDBF09942A887A
:101AF000398848885F846E847D848C849B84AA8422
:101B0000B984C884DF80EE80FD800C811B81AA81AE
:101B1000B981CE0FD11D0FB6F894DEBF0FBECDBF79
:101B2000ED010895A1E21A2EAA1BBB1BFD010DC0F9
:101B3000AA1FBB1FEE1FFF1FA217B307E407F5077D
:101B400020F0A21BB30BE40BF50B661F771F881F59
:101B5000991F1A9469F760957095809590959B01EF
:101B6000AC01BD01CF010895A29FB001B39FC00198
:101B7000A39F700D811D1124911DB29F700D811DB9
:101B80001124911D08955058BB27AA270E94DB0DF0
:101B90000C94AD0E0E949F0E38F00E94A60E20F00D
:101BA00039F49F3F19F426F40C949C0E0EF4E09542
:101BB000E7FB0C94960EE92F0E94BE0E58F3BA175D
:101BC000620773078407950720F079F4A6F50C9453
:101BD000E00E0EF4E0950B2EBA2FA02D0B01B901EB
:101BE00090010C01CA01A0011124FF27591B99F093
:101BF000593F50F4503E68F11A16F040A22F232F9F
:101C0000342F4427585FF3CF469537952795A795EE
:101C1000F0405395C9F77EF41F16BA0B620B730B95
:101C2000840BBAF09150A1F0FF0FBB1F661F771F06
:101C3000881FC2F70EC0BA0F621F731F841F48F4BB
:101C4000879577956795B795F7959E3F08F0B0CF44
:101C50009395880F08F09927EE0F9795879508952B
:101C60000E94720E08F481E00895E89409C097FB81
:101C70003EF490958095709561957F4F8F4F9F4F63
:101C80009923A9F0F92F96E9BB279395F6958795A7
:101C900077956795B795F111F8CFFAF4BB0F11F46A
:101CA00060FF1BC06F5F7F4F8F4F9F4F16C0882311
:101CB00011F096E911C0772321F09EE8872F762F47
:101CC00005C0662371F096E8862F70E060E02AF088
:101CD0009A95660F771F881FDAF7880F9695879574
:101CE00097F90895990F0008550FAA0BE0E8FEEF49
:101CF00016161706E807F907C0F012161306E407D0
:101D0000F50798F0621B730B840B950B39F40A26C8
:101D100061F0232B242B252B21F408950A2609F4A6
:101D2000A140A6958FEF811D811D089597F99F67AA
:101D300080E870E060E008959FEF80EC0895002453
:101D40000A941616170618060906089500240A9420
:101D500012161306140605060895092E0394000CA6
:101D600011F4882352F0BB0F40F4BF2B11F460FF35
:101D700004C06F5F7F4F8F4F9F4F089557FD90585E
:101D8000440F551F59F05F3F71F04795880F97FB3F
:101D9000991F61F09F3F79F08795089512161306F9
:101DA0001406551FF2CF4695F1DF08C01616170628
:101DB0001806991FF1CF869571056105089408955D
:101DC000E894BB2766277727CB0197F908950E94EF
:101DD000FA0E0C94AD0E0E949F0E38F00E94A60ED3
:101DE00020F0952311F00C94960E0C949C0E112467
:101DF0000C94E10E0E94BE0E70F3959FC1F3950FF7
:101E000050E0551F629FF001729FBB27F00DB11D7E
:101E1000639FAA27F00DB11DAA1F649F6627B00D0E
:101E2000A11D661F829F2227B00DA11D621F739FF7
:101E3000B00DA11D621F839FA00D611D221F749F05
:101E40003327A00D611D231F849F600D211D822F4C
:101E5000762F6A2F11249F5750409AF0F1F0882373
:101E60004AF0EE0FFF1FBB1F661F771F881F9150A0
:101E70005040A9F79E3F510580F00C94960E0C94AB
:101E8000E10E5F3FE4F3983ED4F38695779567952E
:101E9000B795F795E7959F5FC1F7FE2B880F911DCA
:101EA0009695879597F9089597FB072E16F4009459
:101EB00007D077FD09D00E946F0F07FC05D03EF4D4
:101EC000909581959F4F0895709561957F4F0895E6
:101ED0000E94B40DB7FF0895821B930B0895AA1BAF
:101EE000BB1B51E107C0AA1FBB1FA617B70710F005
:101EF000A61BB70B881F991F5A95A9F78095909537
:101F0000BC01CD010895EE0FFF1F0590F491E02D67
:101F1000099481E090E0F8940C94990FFB01DC01A6
:101F20000D900020E9F7119701900D920020E1F744
:101F3000089510E0CFEDD0E004C0FE010E94830FB1
:0C1F40002196C03ED107C9F7F894FFCFEE
:101F4C000A0007000E0001000000000000009C02C7
:101F5C0009023302E9026402420256020000000048
:101F6C002E030902B8032D037E0396031503546553
:101F7C006D70657261747572652073656E736F72C6
:101F8C00206572726F72000D0A00240074656D700A
:101F9C00657261747572653D002661697271756157
:0E1FAC006C6974793D0026647573743D000005
:00000001FF
